{
  "_format": "hh-sol-artifact-1",
  "contractName": "CommunityFunding",
  "sourceName": "contracts/communityfunding.sol",
  "abi": [
    {
      "anonymous": false,
      "inputs": [
        {
          "indexed": false,
          "internalType": "uint256",
          "name": "projectId",
          "type": "uint256"
        },
        {
          "indexed": false,
          "internalType": "address",
          "name": "donor",
          "type": "address"
        },
        {
          "indexed": false,
          "internalType": "uint256",
          "name": "amount",
          "type": "uint256"
        }
      ],
      "name": "DonationReceived",
      "type": "event"
    },
    {
      "anonymous": false,
      "inputs": [
        {
          "indexed": false,
          "internalType": "uint256",
          "name": "projectId",
          "type": "uint256"
        },
        {
          "indexed": false,
          "internalType": "uint256",
          "name": "amount",
          "type": "uint256"
        }
      ],
      "name": "FundsWithdrawn",
      "type": "event"
    },
    {
      "anonymous": false,
      "inputs": [
        {
          "indexed": false,
          "internalType": "uint256",
          "name": "projectId",
          "type": "uint256"
        },
        {
          "indexed": false,
          "internalType": "address",
          "name": "owner",
          "type": "address"
        },
        {
          "indexed": false,
          "internalType": "uint256",
          "name": "goal",
          "type": "uint256"
        },
        {
          "indexed": false,
          "internalType": "string",
          "name": "description",
          "type": "string"
        }
      ],
      "name": "ProjectCreated",
      "type": "event"
    },
    {
      "inputs": [
        {
          "internalType": "string",
          "name": "_description",
          "type": "string"
        },
        {
          "internalType": "uint256",
          "name": "_fundingGoal",
          "type": "uint256"
        }
      ],
      "name": "createProject",
      "outputs": [],
      "stateMutability": "nonpayable",
      "type": "function"
    },
    {
      "inputs": [
        {
          "internalType": "uint256",
          "name": "_projectId",
          "type": "uint256"
        }
      ],
      "name": "donate",
      "outputs": [],
      "stateMutability": "payable",
      "type": "function"
    },
    {
      "inputs": [],
      "name": "projectCount",
      "outputs": [
        {
          "internalType": "uint256",
          "name": "",
          "type": "uint256"
        }
      ],
      "stateMutability": "view",
      "type": "function"
    },
    {
      "inputs": [
        {
          "internalType": "uint256",
          "name": "",
          "type": "uint256"
        }
      ],
      "name": "projects",
      "outputs": [
        {
          "internalType": "address payable",
          "name": "owner",
          "type": "address"
        },
        {
          "internalType": "string",
          "name": "description",
          "type": "string"
        },
        {
          "internalType": "uint256",
          "name": "fundingGoal",
          "type": "uint256"
        },
        {
          "internalType": "uint256",
          "name": "amountRaised",
          "type": "uint256"
        },
        {
          "internalType": "bool",
          "name": "withdrawn",
          "type": "bool"
        }
      ],
      "stateMutability": "view",
      "type": "function"
    },
    {
      "inputs": [
        {
          "internalType": "uint256",
          "name": "_projectId",
          "type": "uint256"
        }
      ],
      "name": "withdrawFunds",
      "outputs": [],
      "stateMutability": "nonpayable",
      "type": "function"
    }
  ],
  "bytecode": "0x608060405260008055348015601357600080fd5b50611163806100236000396000f3fe60806040526004361061004a5760003560e01c8063107046bd1461004f578063155dd5ee1461009057806336fbad26146100b957806391754a5d146100e4578063f14faf6f1461010d575b600080fd5b34801561005b57600080fd5b50610076600480360381019061007191906106fb565b610129565b604051610087959493929190610823565b60405180910390f35b34801561009c57600080fd5b506100b760048036038101906100b291906106fb565b610214565b005b3480156100c557600080fd5b506100ce610427565b6040516100db919061087d565b60405180910390f35b3480156100f057600080fd5b5061010b600480360381019061010691906109cd565b61042d565b005b610127600480360381019061012291906106fb565b6105b3565b005b60016020528060005260406000206000915090508060000160009054906101000a900473ffffffffffffffffffffffffffffffffffffffff169080600101805461017290610a58565b80601f016020809104026020016040519081016040528092919081815260200182805461019e90610a58565b80156101eb5780601f106101c0576101008083540402835291602001916101eb565b820191906000526020600020905b8154815290600101906020018083116101ce57829003601f168201915b5050505050908060020154908060030154908060040160009054906101000a900460ff16905085565b60006001600083815260200190815260200160002090508060000160009054906101000a900473ffffffffffffffffffffffffffffffffffffffff1673ffffffffffffffffffffffffffffffffffffffff163373ffffffffffffffffffffffffffffffffffffffff16146102bd576040517f08c379a00000000000000000000000000000000000000000000000000000000081526004016102b490610ad5565b60405180910390fd5b806002015481600301541015610308576040517f08c379a00000000000000000000000000000000000000000000000000000000081526004016102ff90610b41565b60405180910390fd5b8060040160009054906101000a900460ff161561035a576040517f08c379a000000000000000000000000000000000000000000000000000000000815260040161035190610bad565b60405180910390fd5b60018160040160006101000a81548160ff0219169083151502179055508060000160009054906101000a900473ffffffffffffffffffffffffffffffffffffffff1673ffffffffffffffffffffffffffffffffffffffff166108fc82600301549081150290604051600060405180830381858888f193505050501580156103e5573d6000803e3d6000fd5b507fd66662c0ded9e58fd31d5e44944bcfd07ffc15e6927ecc1382e7941cb7bd24c482826003015460405161041b929190610bcd565b60405180910390a15050565b60005481565b60008111610470576040517f08c379a000000000000000000000000000000000000000000000000000000000815260040161046790610c68565b60405180910390fd5b6040518060a001604052803373ffffffffffffffffffffffffffffffffffffffff1681526020018381526020018281526020016000815260200160001515815250600160008054815260200190815260200160002060008201518160000160006101000a81548173ffffffffffffffffffffffffffffffffffffffff021916908373ffffffffffffffffffffffffffffffffffffffff16021790555060208201518160010190816105219190610e34565b50604082015181600201556060820151816003015560808201518160040160006101000a81548160ff0219169083151502179055509050507fb9063c72c82ab2995bd11103743bc1617470aab7e4eabe0516116f950cf437806000543383856040516105909493929190610f27565b60405180910390a16000808154809291906105aa90610fa2565b91905055505050565b60006001600083815260200190815260200160002090506000341161060d576040517f08c379a000000000000000000000000000000000000000000000000000000000815260040161060490611036565b60405180910390fd5b8060020154816003015410610657576040517f08c379a000000000000000000000000000000000000000000000000000000000815260040161064e906110a2565b60405180910390fd5b3481600301600082825461066b91906110c2565b925050819055507f0b5b4c52969ff7329ecf7ee536409fda87812b15a8622bc6e8cdeab3aee14a268233346040516106a5939291906110f6565b60405180910390a15050565b6000604051905090565b600080fd5b600080fd5b6000819050919050565b6106d8816106c5565b81146106e357600080fd5b50565b6000813590506106f5816106cf565b92915050565b600060208284031215610711576107106106bb565b5b600061071f848285016106e6565b91505092915050565b600073ffffffffffffffffffffffffffffffffffffffff82169050919050565b600061075382610728565b9050919050565b61076381610748565b82525050565b600081519050919050565b600082825260208201905092915050565b60005b838110156107a3578082015181840152602081019050610788565b60008484015250505050565b6000601f19601f8301169050919050565b60006107cb82610769565b6107d58185610774565b93506107e5818560208601610785565b6107ee816107af565b840191505092915050565b610802816106c5565b82525050565b60008115159050919050565b61081d81610808565b82525050565b600060a082019050610838600083018861075a565b818103602083015261084a81876107c0565b905061085960408301866107f9565b61086660608301856107f9565b6108736080830184610814565b9695505050505050565b600060208201905061089260008301846107f9565b92915050565b600080fd5b600080fd5b7f4e487b7100000000000000000000000000000000000000000000000000000000600052604160045260246000fd5b6108da826107af565b810181811067ffffffffffffffff821117156108f9576108f86108a2565b5b80604052505050565b600061090c6106b1565b905061091882826108d1565b919050565b600067ffffffffffffffff821115610938576109376108a2565b5b610941826107af565b9050602081019050919050565b82818337600083830152505050565b600061097061096b8461091d565b610902565b90508281526020810184848401111561098c5761098b61089d565b5b61099784828561094e565b509392505050565b600082601f8301126109b4576109b3610898565b5b81356109c484826020860161095d565b91505092915050565b600080604083850312156109e4576109e36106bb565b5b600083013567ffffffffffffffff811115610a0257610a016106c0565b5b610a0e8582860161099f565b9250506020610a1f858286016106e6565b9150509250929050565b7f4e487b7100000000000000000000000000000000000000000000000000000000600052602260045260246000fd5b60006002820490506001821680610a7057607f821691505b602082108103610a8357610a82610a29565b5b50919050565b7f4f6e6c792070726f6a656374206f776e65722063616e20776974686472617700600082015250565b6000610abf601f83610774565b9150610aca82610a89565b602082019050919050565b60006020820190508181036000830152610aee81610ab2565b9050919050565b7f46756e64696e6720676f616c206e6f74206d6574000000000000000000000000600082015250565b6000610b2b601483610774565b9150610b3682610af5565b602082019050919050565b60006020820190508181036000830152610b5a81610b1e565b9050919050565b7f46756e647320616c72656164792077697468647261776e000000000000000000600082015250565b6000610b97601783610774565b9150610ba282610b61565b602082019050919050565b60006020820190508181036000830152610bc681610b8a565b9050919050565b6000604082019050610be260008301856107f9565b610bef60208301846107f9565b9392505050565b7f46756e64696e6720676f616c206d75737420626520677265617465722074686160008201527f6e20300000000000000000000000000000000000000000000000000000000000602082015250565b6000610c52602383610774565b9150610c5d82610bf6565b604082019050919050565b60006020820190508181036000830152610c8181610c45565b9050919050565b60008190508160005260206000209050919050565b60006020601f8301049050919050565b600082821b905092915050565b600060088302610cea7fffffffffffffffffffffffffffffffffffffffffffffffffffffffffffffffff82610cad565b610cf48683610cad565b95508019841693508086168417925050509392505050565b6000819050919050565b6000610d31610d2c610d27846106c5565b610d0c565b6106c5565b9050919050565b6000819050919050565b610d4b83610d16565b610d5f610d5782610d38565b848454610cba565b825550505050565b600090565b610d74610d67565b610d7f818484610d42565b505050565b5b81811015610da357610d98600082610d6c565b600181019050610d85565b5050565b601f821115610de857610db981610c88565b610dc284610c9d565b81016020851015610dd1578190505b610de5610ddd85610c9d565b830182610d84565b50505b505050565b600082821c905092915050565b6000610e0b60001984600802610ded565b1980831691505092915050565b6000610e248383610dfa565b9150826002028217905092915050565b610e3d82610769565b67ffffffffffffffff811115610e5657610e556108a2565b5b610e608254610a58565b610e6b828285610da7565b600060209050601f831160018114610e9e5760008415610e8c578287015190505b610e968582610e18565b865550610efe565b601f198416610eac86610c88565b60005b82811015610ed457848901518255600182019150602085019450602081019050610eaf565b86831015610ef15784890151610eed601f891682610dfa565b8355505b6001600288020188555050505b505050505050565b6000610f1182610728565b9050919050565b610f2181610f06565b82525050565b6000608082019050610f3c60008301876107f9565b610f496020830186610f18565b610f5660408301856107f9565b8181036060830152610f6881846107c0565b905095945050505050565b7f4e487b7100000000000000000000000000000000000000000000000000000000600052601160045260246000fd5b6000610fad826106c5565b91507fffffffffffffffffffffffffffffffffffffffffffffffffffffffffffffffff8203610fdf57610fde610f73565b5b600182019050919050565b7f446f6e6174696f6e206d7573742062652067726561746572207468616e203000600082015250565b6000611020601f83610774565b915061102b82610fea565b602082019050919050565b6000602082019050818103600083015261104f81611013565b9050919050565b7f46756e64696e6720676f616c20616c7265616479206d65740000000000000000600082015250565b600061108c601883610774565b915061109782611056565b602082019050919050565b600060208201905081810360008301526110bb8161107f565b9050919050565b60006110cd826106c5565b91506110d8836106c5565b92508282019050808211156110f0576110ef610f73565b5b92915050565b600060608201905061110b60008301866107f9565b6111186020830185610f18565b61112560408301846107f9565b94935050505056fea2646970667358221220cbcccc704c87de6e80d329ddc8bc5cd41940fa84f673a8adc4440cedbba5aac664736f6c634300081c0033",
  "linkReferences": {},
  "deployedLinkReferences": {}
}