{
  "_format": "hh-sol-artifact-1",
  "contractName": "CommunityFunding",
  "sourceName": "contracts/communityfunding.sol",
  "abi": [
    {
      "anonymous": false,
      "inputs": [
        {
          "indexed": false,
          "internalType": "uint256",
          "name": "projectId",
          "type": "uint256"
        },
        {
          "indexed": false,
          "internalType": "address",
          "name": "donor",
          "type": "address"
        },
        {
          "indexed": false,
          "internalType": "uint256",
          "name": "amount",
          "type": "uint256"
        }
      ],
      "name": "DonationReceived",
      "type": "event"
    },
    {
      "anonymous": false,
      "inputs": [
        {
          "indexed": false,
          "internalType": "uint256",
          "name": "projectId",
          "type": "uint256"
        },
        {
          "indexed": false,
          "internalType": "uint256",
          "name": "amount",
          "type": "uint256"
        }
      ],
      "name": "FundsWithdrawn",
      "type": "event"
    },
    {
      "anonymous": false,
      "inputs": [
        {
          "indexed": false,
          "internalType": "uint256",
          "name": "projectId",
          "type": "uint256"
        },
        {
          "indexed": false,
          "internalType": "address",
          "name": "owner",
          "type": "address"
        },
        {
          "indexed": false,
          "internalType": "uint256",
          "name": "goal",
          "type": "uint256"
        },
        {
          "indexed": false,
          "internalType": "string",
          "name": "description",
          "type": "string"
        }
      ],
      "name": "ProjectCreated",
      "type": "event"
    },
    {
      "inputs": [
        {
          "internalType": "string",
          "name": "_description",
          "type": "string"
        },
        {
          "internalType": "uint256",
          "name": "_fundingGoal",
          "type": "uint256"
        }
      ],
      "name": "createProject",
      "outputs": [],
      "stateMutability": "nonpayable",
      "type": "function"
    },
    {
      "inputs": [
        {
          "internalType": "uint256",
          "name": "_projectId",
          "type": "uint256"
        }
      ],
      "name": "donate",
      "outputs": [],
      "stateMutability": "payable",
      "type": "function"
    },
    {
      "inputs": [],
      "name": "projectCount",
      "outputs": [
        {
          "internalType": "uint256",
          "name": "",
          "type": "uint256"
        }
      ],
      "stateMutability": "view",
      "type": "function"
    },
    {
      "inputs": [
        {
          "internalType": "uint256",
          "name": "",
          "type": "uint256"
        }
      ],
      "name": "projects",
      "outputs": [
        {
          "internalType": "address payable",
          "name": "owner",
          "type": "address"
        },
        {
          "internalType": "string",
          "name": "description",
          "type": "string"
        },
        {
          "internalType": "uint256",
          "name": "fundingGoal",
          "type": "uint256"
        },
        {
          "internalType": "uint256",
          "name": "amountRaised",
          "type": "uint256"
        },
        {
          "internalType": "bool",
          "name": "withdrawn",
          "type": "bool"
        }
      ],
      "stateMutability": "view",
      "type": "function"
    }
  ],
  "bytecode": "0x608060405260008055348015601357600080fd5b50610daf806100236000396000f3fe60806040526004361061003f5760003560e01c8063107046bd1461004457806336fbad261461008557806391754a5d146100b0578063f14faf6f146100d9575b600080fd5b34801561005057600080fd5b5061006b600480360381019061006691906104b4565b6100f5565b60405161007c9594939291906105dc565b60405180910390f35b34801561009157600080fd5b5061009a6101e0565b6040516100a79190610636565b60405180910390f35b3480156100bc57600080fd5b506100d760048036038101906100d29190610786565b6101e6565b005b6100f360048036038101906100ee91906104b4565b61036c565b005b60016020528060005260406000206000915090508060000160009054906101000a900473ffffffffffffffffffffffffffffffffffffffff169080600101805461013e90610811565b80601f016020809104026020016040519081016040528092919081815260200182805461016a90610811565b80156101b75780601f1061018c576101008083540402835291602001916101b7565b820191906000526020600020905b81548152906001019060200180831161019a57829003601f168201915b5050505050908060020154908060030154908060040160009054906101000a900460ff16905085565b60005481565b60008111610229576040517f08c379a0000000000000000000000000000000000000000000000000000000008152600401610220906108b4565b60405180910390fd5b6040518060a001604052803373ffffffffffffffffffffffffffffffffffffffff1681526020018381526020018281526020016000815260200160001515815250600160008054815260200190815260200160002060008201518160000160006101000a81548173ffffffffffffffffffffffffffffffffffffffff021916908373ffffffffffffffffffffffffffffffffffffffff16021790555060208201518160010190816102da9190610a80565b50604082015181600201556060820151816003015560808201518160040160006101000a81548160ff0219169083151502179055509050507fb9063c72c82ab2995bd11103743bc1617470aab7e4eabe0516116f950cf437806000543383856040516103499493929190610b73565b60405180910390a160008081548092919061036390610bee565b91905055505050565b6000600160008381526020019081526020016000209050600034116103c6576040517f08c379a00000000000000000000000000000000000000000000000000000000081526004016103bd90610c82565b60405180910390fd5b8060020154816003015410610410576040517f08c379a000000000000000000000000000000000000000000000000000000000815260040161040790610cee565b60405180910390fd5b348160030160008282546104249190610d0e565b925050819055507f0b5b4c52969ff7329ecf7ee536409fda87812b15a8622bc6e8cdeab3aee14a2682333460405161045e93929190610d42565b60405180910390a15050565b6000604051905090565b600080fd5b600080fd5b6000819050919050565b6104918161047e565b811461049c57600080fd5b50565b6000813590506104ae81610488565b92915050565b6000602082840312156104ca576104c9610474565b5b60006104d88482850161049f565b91505092915050565b600073ffffffffffffffffffffffffffffffffffffffff82169050919050565b600061050c826104e1565b9050919050565b61051c81610501565b82525050565b600081519050919050565b600082825260208201905092915050565b60005b8381101561055c578082015181840152602081019050610541565b60008484015250505050565b6000601f19601f8301169050919050565b600061058482610522565b61058e818561052d565b935061059e81856020860161053e565b6105a781610568565b840191505092915050565b6105bb8161047e565b82525050565b60008115159050919050565b6105d6816105c1565b82525050565b600060a0820190506105f16000830188610513565b81810360208301526106038187610579565b905061061260408301866105b2565b61061f60608301856105b2565b61062c60808301846105cd565b9695505050505050565b600060208201905061064b60008301846105b2565b92915050565b600080fd5b600080fd5b7f4e487b7100000000000000000000000000000000000000000000000000000000600052604160045260246000fd5b61069382610568565b810181811067ffffffffffffffff821117156106b2576106b161065b565b5b80604052505050565b60006106c561046a565b90506106d1828261068a565b919050565b600067ffffffffffffffff8211156106f1576106f061065b565b5b6106fa82610568565b9050602081019050919050565b82818337600083830152505050565b6000610729610724846106d6565b6106bb565b90508281526020810184848401111561074557610744610656565b5b610750848285610707565b509392505050565b600082601f83011261076d5761076c610651565b5b813561077d848260208601610716565b91505092915050565b6000806040838503121561079d5761079c610474565b5b600083013567ffffffffffffffff8111156107bb576107ba610479565b5b6107c785828601610758565b92505060206107d88582860161049f565b9150509250929050565b7f4e487b7100000000000000000000000000000000000000000000000000000000600052602260045260246000fd5b6000600282049050600182168061082957607f821691505b60208210810361083c5761083b6107e2565b5b50919050565b7f46756e64696e6720676f616c206d75737420626520677265617465722074686160008201527f6e20300000000000000000000000000000000000000000000000000000000000602082015250565b600061089e60238361052d565b91506108a982610842565b604082019050919050565b600060208201905081810360008301526108cd81610891565b9050919050565b60008190508160005260206000209050919050565b60006020601f8301049050919050565b600082821b905092915050565b6000600883026109367fffffffffffffffffffffffffffffffffffffffffffffffffffffffffffffffff826108f9565b61094086836108f9565b95508019841693508086168417925050509392505050565b6000819050919050565b600061097d6109786109738461047e565b610958565b61047e565b9050919050565b6000819050919050565b61099783610962565b6109ab6109a382610984565b848454610906565b825550505050565b600090565b6109c06109b3565b6109cb81848461098e565b505050565b5b818110156109ef576109e46000826109b8565b6001810190506109d1565b5050565b601f821115610a3457610a05816108d4565b610a0e846108e9565b81016020851015610a1d578190505b610a31610a29856108e9565b8301826109d0565b50505b505050565b600082821c905092915050565b6000610a5760001984600802610a39565b1980831691505092915050565b6000610a708383610a46565b9150826002028217905092915050565b610a8982610522565b67ffffffffffffffff811115610aa257610aa161065b565b5b610aac8254610811565b610ab78282856109f3565b600060209050601f831160018114610aea5760008415610ad8578287015190505b610ae28582610a64565b865550610b4a565b601f198416610af8866108d4565b60005b82811015610b2057848901518255600182019150602085019450602081019050610afb565b86831015610b3d5784890151610b39601f891682610a46565b8355505b6001600288020188555050505b505050505050565b6000610b5d826104e1565b9050919050565b610b6d81610b52565b82525050565b6000608082019050610b8860008301876105b2565b610b956020830186610b64565b610ba260408301856105b2565b8181036060830152610bb48184610579565b905095945050505050565b7f4e487b7100000000000000000000000000000000000000000000000000000000600052601160045260246000fd5b6000610bf98261047e565b91507fffffffffffffffffffffffffffffffffffffffffffffffffffffffffffffffff8203610c2b57610c2a610bbf565b5b600182019050919050565b7f446f6e6174696f6e206d7573742062652067726561746572207468616e203000600082015250565b6000610c6c601f8361052d565b9150610c7782610c36565b602082019050919050565b60006020820190508181036000830152610c9b81610c5f565b9050919050565b7f46756e64696e6720676f616c20616c7265616479206d65740000000000000000600082015250565b6000610cd860188361052d565b9150610ce382610ca2565b602082019050919050565b60006020820190508181036000830152610d0781610ccb565b9050919050565b6000610d198261047e565b9150610d248361047e565b9250828201905080821115610d3c57610d3b610bbf565b5b92915050565b6000606082019050610d5760008301866105b2565b610d646020830185610b64565b610d7160408301846105b2565b94935050505056fea26469706673582212201a6c31d6223d1e6165344ddfc32f913eeb8aa24d89e9dffbceabea6eed2abfe364736f6c634300081c0033",
  "linkReferences": {},
  "deployedLinkReferences": {}
}